:020000040800F2
:10000000A80400202D010008491F0008EB1C00086F
:1000100000000000000000000000000000000000E0
:10002000000000000000000000000000531F000856
:100030000000000000000000511F0008551F0008CC
:100040003F0100083F0100083F0100083F01000890
:100050003F0100083F0100083F0100083F01000880
:100060003F0100083F0100083F0100083F01000870
:100070003F0100083F0100083F0100083F01000860
:100080003F010008C91F0008000000003F010008F0
:100090003F0100083F0100083F0100083F01000840
:1000A0003F0100083F0100083F0100083F01000830
:1000B0003F010008000000003F0100080448854699
:1000C00000F084FA00480047F12B0008C046C04603
:1000D000A804002000BF704730B50446124DA9693E
:1000E000302565436B1C303B994208D3CA1A00BFC8
:1000F0000D4DA86988420ED89042F9D80BE00A4D00
:100100006D696D186D1CEA1A00BF074DA869884219
:10011000FBD99042F9D830BD10B50446002C02D06E
:10012000204600F069FE10BD00E000E00448804772
:1001300004480047FEE7FEE7FEE7FEE7FEE7FEE7CE
:10014000C51F0008BD00000830B50B460146002061
:100150002022012409E00D46D5409D4205D31D46CD
:100160009540491B2546954040191546521E002DC5
:10017000F1DC30BDF0B51FB40646002082B0054664
:100180004024019100901BE0019922460F46304621
:1001900000F020F8049A059B801A994110D310466C
:1001A0001946224600F039F8361A8F410197224647
:1001B00001200021009F00F030F838184D410090D8
:1001C0002046641E0028DFDC019B00982946324649
:1001D00007B0F0BD10B5202A04DB0846203AD04015
:1001E000002110BD0B46D340D0402024A21A9140DC
:1001F0000843194610BDD2B201E00270401C491EEE
:10020000FBD270470022F6E710B513460A460446B3
:100210001946FFF7F0FF204610BD10B5202A04DB79
:100220000146203A9140002010BD914020239C1AA5
:100230000346E3401943904010BD0000F0B5074667
:100240000846584087B0C00F049048000E46590039
:1002500040084908BC1A884105D2384631461E4636
:1002600017460B4602465800400810434DD0300D4B
:10027000039040055900400D490D0590401A029029
:10028000402873DA18030121000B09050843019087
:1002900004980092002806D01146019A4942002095
:1002A000904100910190029840210A1A019900980A
:1002B000FFF7B3FF05460C466B4607CB00F098F9F5
:1002C000C0197141039A0E0D0023D71756401A46E4
:1002D0007A40164344D0049A002A2DD0029A012A6B
:1002E000039A15DC1205C01A914101263605001C3F
:1002F0007141D20F059ED2070093019202962A46C1
:10030000234600F095F907B0F0BD38463146FAE7CC
:100310001605234A0F46B218C01AB7410121090534
:10032000001C4F4100187F41114618187941E20F17
:1003300010436D19644113E0E2076D08154364082A
:10034000C2071443039A01261205C01A91413605CB
:10035000001C7141CE07400830434908C018514184
:100360002A46234600F057F9CDE7FFE7049801221B
:100370004000C117121A00238B4104983146C4175C
:10038000381AA141EEE730B40124E407634030BCE1
:1003900054E730B40124E407614030BC4EE700006C
:1003A0000000E0FFF0B51FB488B00B990998002455
:1003B00048400999C00F490049080991C0070B99A5
:1003C0000090490049080B9109990898A6460843EE
:1003D0001CD00B990A98084318D0099801244000B2
:1003E000420D4800410D099824050003000B2043ED
:1003F00009900B980003000B20430B9050181C49E8
:100400004018002201901446104605E000200146E5
:100410000DB0F0BD032801DA034600E003239C463B
:10042000C11A0AAE0AE05F0008ADED5B4F00F75B52
:100430007D430027AA187C41491C5B1E6145F2DD03
:10044000410004AB5A522104120C0A43240C401CF4
:100450000828DFDB01980290009970460191009016
:10046000059B049A0799069800F0E2F8D0E700008F
:100470000DFCFFFFF0B50C465C4085B0E40FE407CF
:1004800003944C000026640859009446490802462B
:100490000296224321D062460A431ED06200570DC5
:1004A0004A000E032303550D012402462C4924055E
:1004B000781B1B0B360B40182343264361460090E4
:1004C0001C46501AB44103D30098401C009002E02F
:1004D000921800985B41002803DA0020014605B01D
:1004E000F0BD0020012109050746864611E064465B
:1004F0001D46141BB54106D36546521BB3417446D5
:1005000007430C43A646CD074008490828439218E4
:100510005B4105460D43EAD11046184313D06046AF
:10052000194650407140084306D06046101AB34146
:1005300006D20122002306E000220123DB0702E0AD
:100540000122D2435310009874460105381C6141C2
:10055000029C039D0019694100F05DF8BFE70000AF
:10056000FD0300004A0009030123090B1B05194381
:100570000A4B10B5520D9A4202DA0020014610BD16
:10058000064B34339A4203DC9A1AFFF723FE10BD60
:10059000034BD218FFF741FE10BD0000FF0300001F
:1005A000CDFBFFFF10B5002904DB0124E407404226
:1005B0008C412146002B04DB1C460123DB07524201
:1005C000A341994200D1904210BD0000064C012584
:1005D000064E05E0E36807CC2B430C3C98471034EB
:1005E000B442F7D3FFF76EFDD82C0008F82C0008B2
:1005F00010B5202A06DBCB170846203A1041C11758
:100600000B4306E00B461341D0402024A21A914030
:100610000843194610BD10B5002B08DA0024401C11
:10062000614192185B411A4301D14008400010BD5E
:10063000F0B51FB482B005460C0003D0084601F0A7
:100640003BFD02E001F038FD2030024600902146DB
:100650002846FFF7E2FD049B059A04460F4618431F
:100660001143084314D0184610431BD00098402172
:100670000A1A18460599FFF7ADFD05460E46009A81
:1006800005990498FFF7C9FD084305D0012004E04F
:100690002046394607B0F0BD0020C11705430E4380
:1006A0002C43374300990E986305401A7905E40AF4
:1006B00000220C43FD0A0A3002D500200146E9E77A
:1006C0000105101969410C9C0D9D00196941FFF746
:1006D000A2FFDFE738B5044600250020009020681F
:1006E00080688007800F01280ED120680068C0074D
:1006F000C00F002806D12068C0680121C903084046
:10070000884201D1012000E00020002843D1206868
:10071000806822490840002801D1012000E0002023
:10072000002809D1A06B10210843A063E06B0121D0
:100730000843E063012038BD206880680121084338
:1007400021688860164917480068FFF7FDFC009093
:1007500002E00098401E009000980028F9D100F0B7
:1007600065FC05460EE000F061FC401B022809D93B
:10077000A06B10210843A063E06B01210843E063F4
:100780000120D8E720680068C007C00F0121484059
:1007900048400028E7D00020CDE700001700008087
:1007A00040420F001C00002010B5044601210448FF
:1007B00000F074FA024800F051F980B210BD000058
:1007C000200000207047F8B50446002500260027C9
:1007D00000BF3420005D012801D10220F8BD0121B5
:1007E0003420015500BF206880688007800F0128F1
:1007F0000CD1206800680840002805D12068C06836
:10080000C9030840884201D1012000E000200028EF
:1008100041D1A06BFF210131884302210843A0632D
:100820002068C0688707BF0F2068C0688008800004
:100830002168C860206880680121C90708432168D1
:10084000886000F0F3FB064611E000F0EFFB801B30
:1008500002280CD9A06B0221884310210843A06311
:1008600000BF00213420015500BF0120B6E72068F9
:100870008068C00FC0070121C9078842E5D0206801
:10088000C06838432168C860A06B022188430121F9
:100890000843A06304E0A06B20210843A063012566
:1008A00000BF00213420015500BF284696E7000014
:1008B000F8B504460D4600260020009001210907E6
:1008C000E06A884215D0E06A012812D0E06A022866
:1008D0000FD0E06A03280CD0E06A042809D0E06A4F
:1008E000052806D0E06A062803D0E06A072800D071
:1008F00000BF00BF3420005D012801D10220F8BDF7
:1009000001213420015500BF20688068042108407F
:10091000800800287ED14D496868884264D02068EC
:10092000806A2A7801219140084321688862012168
:100930000907E06A884229D0E06A012826D0E06AE7
:10094000022823D0E06A032820D0E06A04281DD0C2
:10095000E06A05281AD0E06A062817D0E06A07285E
:1009600014D0A868216849694907490F88420DD009
:1009700020684069C008C00021684861206840695B
:10098000297A4907490F08432168486128681028D7
:1009900005D02868112802D0286812284FD12C4889
:1009A00080682968102901D1C90407E02968112944
:1009B00002D10121890501E00121090608432449EA
:1009C0008860286810283AD1224923480068FFF738
:1009D000BBFB0A214843009002E00098401E0090B3
:1009E00000980028F9D12AE02068816A2A7801203D
:1009F00090408143206881622868102805D02868CB
:100A0000112802D02868122819D111488068296855
:100A1000102900E00EE001D1C90407E0296811297E
:100A200002D10121890501E0012109068843084915
:100A3000886004E0A06B20210843A063012600BF6A
:100A400000213420015500BF304658E70110000056
:100A50000027014040420F001C00002001460868AA
:100A6000006C704770B5044600260025002C01D1AB
:100A7000012070BDA06B002806D1E0630021342066
:100A80000155204600F0D0F8A06B10210840002846
:100A90007ED1002EFCD120688068042108408008A7
:100AA0000028F5D1A06B8901884302210843A06387
:100AB000206880688007800F01280DD120680068B9
:100AC000C007C00F002805D12068C068890308400E
:100AD000884201D1012000E0002000280FD12068C9
:100AE000C06818218843A16808432168C86020684D
:100AF00000698000800861680843216808612068F7
:100B0000C068474908402168C860207E8003617E34
:100B1000C9030843A17E49030843A16A012902D001
:100B20000121090300E000210843E168084321692D
:100B3000022901D1042100E0002108432421095D9C
:100B4000490008430543E07E01280ED1A07E00281D
:100B500003D101200004054307E0A06B20210843D6
:100B6000A063E06B01210843E063FF21C231E0692B
:100B7000884203D0216AE069084305432068C068C1
:100B800028432168C86001210907E06A884200E023
:100B90003EE014D0E06A012811D0E06A02280ED0AD
:100BA000E06A03280BD0E06A042808D0E06A052830
:100BB00005D0E06A062802D0E06A07280DD1206837
:100BC0004069C008C0002168486120684069A18D63
:100BD0004907490F0843216848612068C0681149E6
:100BE0000840A84208D10020E063A06B022188439E
:100BF00001210843A06310E0A06B0221884310216B
:100C00000843A063E06B01210843E063012604E090
:100C1000A06B10210843A0630126304629E700009D
:100C20001902FEFFE7FF3F8310B586B0044614218A
:100C300001A8FFF7E7FA17492068884227D100BFCB
:100C40001548806949150843134988610846806939
:100C500049150840009000BF00BF00BF0E48406922
:100C6000090208430C4948610846406901214904CA
:100C70000840009000BF00BF0120019003200290B7
:100C80000020039001A90920C00600F0CBF806B0AF
:100C900010BD00000024014000100240F8B50446D9
:100CA0000D466069082801D1082711E02068C06856
:100CB000C007C00F00280AD0A06B20210843A06302
:100CC00000BF00213420015500BF0120F8BD0C27D2
:100CD00000F0ACF9064614E0681C002811D0002D85
:100CE00004D000F0A3F9801BA8420AD9A06B04210C
:100CF0000843A06300BF00213420015500BF03203A
:100D0000E4E72068006838400028E5D0A06B0121A6
:100D100049020843A0632068C06803218902084093
:100D2000002825D1A07E002822D120680068082153
:100D3000084008281CD120688068042108408008E9
:100D400000280DD1206840680C2188432168486044
:100D5000A06BFF210131884301210843A06307E014
:100D6000A06B20210843A063E06B01210843E063EE
:100D7000207E002802D10C20216808600020A5E711
:100D800070B504460025206880680421084080086A
:100D900000282BD100BF3420005D012801D10220A2
:100DA00070BD01213420015500BF607E012803D0B1
:100DB0002046FFF78FFC0546002D18D1A06B0D498A
:100DC0000840FF2101310843A0630020E06300BF19
:100DD00000213420015500BF1C20216808602068D4
:100DE0008068042108432168886000E002252846C5
:100DF000D6E70000FEF1FFFF70B5044600F016F9DB
:100E000006462546681C002802D0054800782D18A3
:100E100000BF00F00BF9801BA842FAD370BD0000A0
:100E20001800002078B503460022DDE00126964038
:100E30000C683440002C7DD04D68012D08D04D68E1
:100E4000022D05D04D68112D02D04D68122D18D1FC
:100E5000986856000325B5400646AE433046560016
:100E6000CD68B540284398605868012595400646EE
:100E7000AE43304610264D6835402D099540284335
:100E80005860D86856000325B5400646AE43304644
:100E900056008D68B5402843D8604D68022D02D0B9
:100EA0004D68122D15D1D508AE001D462035A85924
:100EB0005507EE0E0F25B5400646AE4330465607A1
:100EC000F60E0D69B5402843D508AD001E46203604
:100ED0007051186856000325B5400646AE433046AB
:100EE0000D79AD07AD0F5600B540284318600126B7
:100EF00036074D683540B54275D100BF3D4DAD69EF
:100F0000012635433B4EB5613546AD69ED07ED0F22
:100F1000009500BF00BF384D9608B600A859950748
:100F20002E0F0F25B5400646AE4330460925ED0687
:100F3000AB4200E057E001D100250FE02F4DAB425E
:100F400001D101250AE02E4DAB4201D1022505E079
:100F50002C4DAB4201D1032500E005259607360F45
:100F6000B5402843244D9608B600A851264D286860
:100F70000546A5432846012636044D683540B5424E
:100F800002D10546254328461F4D2860686805465E
:100F9000A5432846012676044D683540B54202D166
:100FA000054625432846184D6860A8680546A543B0
:100FB0002846012636054D683540B54202D1054622
:100FC00025432846104DA860E8680546A5432846F5
:100FD000012676054D683540B54202D105462543C8
:100FE0002846094DE860521C0D68D540002D00D000
:100FF0001CE778BD001002400800014000040048D2
:1010000000080048000C00480004014010B5426987
:1010100013460B401B040C4694432343836110BDCD
:10102000002A01D0816100E08162704701480068B8
:101030007047000010000020034800680349097849
:101040004018014908607047100000201800002077
:1010500010B50648006810210843044908600020C4
:1010600000F006F800F02EF8002010BD002002402D
:1010700070B50446104801787D20C000FFF764F881
:10108000064631460D480068FFF75EF8054600F059
:101090004FFC002801D0012070BD042C07D2002293
:1010A0002146501E00F03CF80548046001E0012094
:1010B000F2E70020F0E70000180000201C000020EC
:1010C0001400002008B500BF0D48806901210843C5
:1010D0000B49886108468069C007C00F009000BFB7
:1010E00000BF00BF0846C069090408430449C8613D
:1010F0000846C06909040840009000BF00BF08BD51
:10110000001002400146002905DBCB06DB0E012260
:101110009A40024B1A6000BF7047000000E100E0F7
:1011200070B504460D4616462946204600F0F4FFE9
:1011300070BD704770B504460D46002C01D10120EA
:1011400070BD52480068C007C00FA8420ED24F4879
:1011500000684008400028434C4908600846006881
:10116000C007C00FA84201D00120E9E70221206892
:101170000840022814D1042120680840042807D11F
:1011800043484068072109028843401840494860A5
:101190003F484068F0218843A16808433C494860C3
:1011A0002078C007C00F00283BD06068012808D114
:1011B00037480068012149040840002815D1012062
:1011C000BEE76068022808D131480068012149065D
:1011D0000840002809D10120B2E72D48006802210B
:1011E0000840002801D10120AAE72948406880086A
:1011F00080006168084326494860FFF717FF0646EC
:1012000007E0FFF713FF801B2249884201D9032022
:1012100096E71F4840680C210840616889008842B1
:10122000EFD11A480068C007C00FA8420ED917486E
:1012300000684008400028431449086008460068D8
:10124000C007C00FA84201D0012079E7042120681F
:101250000840042808D10E48406807210902884345
:10126000E16808430A49486000F024F808494968E1
:10127000F02211400909084A515CC840074908603A
:101280000020FFF7F5FE00205AE700000020024092
:101290000010024088130000BD2C00081C00002034
:1012A000034800680121C9040843014908607047E8
:1012B00000100240F0B589B027A001460EC9C068F1
:1012C00005AC0EC4089028A001460EC9C06801AC48
:1012D0000EC4049000240025002700260020009062
:1012E000254844680C20204000282DD0042802D036
:1012F000082828D102E02148009028E00F2080042F
:101300002040800C05A90E5C1B48C06A0007000F36
:1013100001A90D5C0120000420400121090488423C
:101320000AD12A46002315481946FEF723FF314605
:1013300000F0D9FE074604E01148314600F0D3FE24
:101340000746009703E000BF0C48009000BF00BFB5
:10135000009809B0F0BD0000020304050607080963
:101360000A0B0C0D0E0F10100102030405060708EE
:10137000090A0B0C0D0E0F100010024000127A002B
:1013800000093D0010B5064880688021084080288B
:1013900004D1FFF7CEFE80200149887210BD000005
:1013A00000100240FEB50446002C01D10120FEBD14
:1013B0002078C007C00F002871D0FC4840680C217D
:1013C000084004280BD0F94840680840082812D18A
:1013D000F648406801210904084088420BD1F348CF
:1013E000006801214904084000286BD0606800288B
:1013F00068D10120DBE700BF6068012807D1EB4816
:101400000068012109040843E849086031E0606888
:1014100000280ED1E5480068012109048843E3490A
:10142000086008460068012189048843DF49086094
:101430001FE0606805280ED1DC480068012189049E
:101440000843DA4908600846006801210904084396
:10145000D64908600DE0D548006801210904884399
:10146000D249086008460068012189048843CF49B1
:10147000086000BF6068002812D0FFF7D7FD05465E
:1014800006E0FFF7D3FD401B642801D903208EE757
:10149000C64800680121490408400028F1D011E045
:1014A000FFF7C4FD054606E0FFF7C0FD401B6428BA
:1014B00001D903207BE7BD480068012149040840A9
:1014C0000028F1D1022120680840022861D1B748E4
:1014D00040680C21084000280BD0B4484068084000
:1014E00008281BD1B14840680121090408400028A0
:1014F00014D1AE48006802210840002804D0E068FA
:10150000012801D0012052E7A8480068F82188434B
:101510002169C9000843A54908603AE0E06800284D
:1015200020D0A248006801210843A0490860FFF7C5
:101530007DFD054606E0FFF779FD401B022801D935
:10154000032034E799480068022108400028F2D0BF
:1015500096480068F82188432169C90008439349E7
:10156000086016E091480068400840008F49086014
:10157000FFF75CFD054606E0FFF758FD401B02281B
:1015800001D9032013E78948006802210840002898
:10159000F2D1082120680840082831D1E0690028EC
:1015A00017D08248406A0121084380494862FFF70A
:1015B0003DFD054606E0FFF739FD401B022801D935
:1015C0000320F4E67948406A022108400028F2D05E
:1015D00016E07648406A4008400074494862FFF7C8
:1015E00025FD054606E0FFF721FD401B022801D935
:1015F0000320DCE66D48406A022108400028F2D151
:10160000042120680840042873D100200190674815
:10161000C0698906084000280ED100BF6348C06930
:1016200008436249C8610846C0690904084000903F
:1016300000BF00BF012001905D480068FF2101311B
:101640000840002816D15A480068084358490860E5
:10165000FFF7ECFC054606E0FFF7E8FC401B6428BA
:1016600001D90320A3E652480068FF210131084058
:101670000028F1D000BFA068012806D14B48006ABD
:1016800001210843494908622BE0A06800280CD1D9
:101690004648006A40084000444908620846006A1B
:1016A00004218843414908621BE0A06805280CD149
:1016B0003E48006A042108433C4908620846006A23
:1016C00001210843394908620BE03848006A4008A4
:1016D0004000364908620846006A042188433349BD
:1016E000086200BFA068002813D0FFF79FFC0546E2
:1016F00008E02BE0FFF79AFC401B2E49884201D9F5
:10170000032054E62948006A022108400028F1D04D
:1017100011E0FFF78BFC054607E0FFF787FC401B55
:101720002449884201D9032041E62048006A022169
:1017300008400028F1D10198012806D11B48C06952
:101740000121090788431949C86100BF1021206899
:101750000840102860D1606901282DD11348406BE2
:1017600004210843114948630846406B012108439E
:101770000E494863FFF75AFC054606E0FFF756FCA2
:10178000401B022801D9032011E60848406B0221C2
:1017900008400028F2D00548406BF8218843A16931
:1017A000C90008430149486336E0000000100240C8
:1017B00000700040881300006069401D00280FD1B0
:1017C0005A48406B04218843584948630846406B97
:1017D000F8218843A169C9000843544948631BE0C4
:1017E0005248406B04210843504948630846406B07
:1017F000400840004863FFF719FC054606E0FFF784
:1018000015FC401B022801D90320D0E54748406B56
:10181000022108400028F2D1206A00284FD0434816
:1018200040680C210840082864D0206A022847D16B
:101830003E4800680121090688433C490860FFF7DB
:10184000F5FB054606E0FFF7F1FB401B022801D936
:101850000320ACE53548006801214906084000280E
:10186000F1D100BF3148C06A00090001E16A0843B4
:101870002E49C862616AA06A08432C4949683D2222
:101880001204914308432949486000BF0846006894
:1018900001210906084325490860FFF7C7FB0546F3
:1018A00006E0FFF7C3FB401B022801D903207EE5B9
:1018B0001E4800680121490608400028F1D033E0A5
:1018C0001A48006801210906884318490860FFF793
:1018D000ADFB054606E0FFF7A9FB401B022801D936
:1018E000032064E5114800680121490608400028EA
:1018F000F1D119E0206A012800D158E50B4846686B
:10190000C76A012000043040616A88420AD1390761
:10191000090FE06A814205D10F2080043040A16A9E
:10192000884201D0012042E5002040E5001002403D
:1019300070B504462546681E0949884201D9012030
:101940000CE0681E074948610321081F00F0E4FB12
:1019500000200449886107200861002070BD000054
:10196000FFFFFF0000E000E07047704730B502461F
:101970000B4600BF3C20805C012801D1022030BD15
:1019800001253C20855400BF02253D208554106868
:1019900044681068816870252046A843044618688A
:1019A000044310684460114D1068A8420CD0012512
:1019B000AD071068A84207D00D4D1068A84203D0AB
:1019C0000C4D1068A84207D180250846A84301465F
:1019D000586801431068816001253D20855400BF8F
:1019E00000253C20855400BF0020C8E7002C0140A2
:1019F000000400400040014010B50446002C01D115
:101A0000012010BD3D20005D002805D100213C20B3
:101A10000155204600F022F802213D200155211DEC
:101A2000206800F0DFFA01214620015500BF3E206A
:101A300001553F200155402001554120015500BF6F
:101A400000BF422001554320015544200155452047
:101A5000015500BF3D2001550020D2E738B50446AE
:101A60000D492068884215D100BF0C48C06910217B
:101A700008430A49C8610846C0691021084000901F
:101A800000BF00BF002211461120FFF749FB1120C3
:101A9000FFF738FB38BD0000001000400010024086
:101AA00001463D20405C012801D0012070470223FF
:101AB0003D2043540868C068012318430B68D86070
:101AC000124B086898420CD001239B070868984283
:101AD00007D00F4B0868984203D00E4B0868984215
:101AE0000CD1086880684207520F062A0CD008689B
:101AF0000068012318430B68186005E00868006857
:101B0000012318430B6818600020CFE7002C014028
:101B10000004004000400140704710B504462068B2
:101B2000006902210840400800281CD02068C068D5
:101B300008404008002816D0481F2168086101208D
:101B40002077206880698007800F002803D0204616
:101B5000FFF7E2FF05E0204600F0C3F8204600F062
:101B6000C1F800202077206800690421084080081F
:101B700000281DD02068C06808408008002817D0C1
:101B8000C84321680861022020772068806903210A
:101B900009020840002803D02046FFF7BDFF05E0FA
:101BA000204600F09EF8204600F09CF800202077A8
:101BB0002068006908210840C00800281CD020685F
:101BC000C0680840C008002816D0C84321680861D2
:101BD000042020772068C0698007800F002803D088
:101BE0002046FFF799FF05E0204600F07AF82046EE
:101BF00000F078F800202077206800691021084064
:101C0000000900281DD02068C0680840000900288D
:101C100017D0C84321680861082020772068C06970
:101C2000032109020840002803D02046FFF774FF73
:101C300005E0204600F055F8204600F053F800205B
:101C4000207720680069C007C00F01214840484044
:101C500000280CD02068C068084048404840002850
:101C600005D0C81E21680861204600F03CF82068B5
:101C7000006980210840C00900280BD02068C06896
:101C80000840C009002805D0C843216808612046E3
:101C9000FFF76AFE2068006940210840800900289B
:101CA0000BD02068C06808408009002805D0C843D0
:101CB00021680861204600F017F82068006920219B
:101CC0000840400900280BD02068C068084040093F
:101CD000002805D0C843216808612046FFF745FE6B
:101CE00010BD704770477047704700BFFEE70000A7
:101CF0000EB5002000900190029019481949086023
:101D000000204860002117488160C1600121016105
:101D1000042141610021017641768176C176FF215F
:101D2000C231C161002101622430017001212438D7
:101D30008162FEF797FE002801D0FEF743FD0020E8
:101D400000900120000301900004029069460548BC
:101D5000FEF7AEFD002801D0FEF734FD0EBD0000F9
:101D6000002401402000002000B587B0142102A803
:101D7000FEF748FA00BF5B4840690121C9040843E7
:101D800058494861084640690121C904084001904A
:101D900000BF00BF00BF53484069C9000843514914
:101DA000486108464069012189050840019000BF4B
:101DB00000BF00BF4B484069491108434949486189
:101DC00008464069012149040840019000BF00BF56
:101DD00000BF4448406949000843424948610846F9
:101DE0004069012189040840019000BF00BF002222
:101DF000FF2109023C48FFF713F90122F0213A487C
:101E0000FFF70EF9002207213848FFF709F90122F0
:101E1000D1030920C006FFF703F9354802900120DD
:101E2000039000200490059002A92F48FEF7FAFFC6
:101E30000F20029000200390049002A92A48FEF788
:101E4000F1FFE02002900220039000200490032084
:101E500005900020069002A90920C006FEF7E2FFC7
:101E6000072002900120039000200490059002A911
:101E70001E48FEF7D7FFFF2001300290002003909C
:101E8000049002A90920C006FEF7CCFF0F204002F3
:101E9000029002200390002004900320059001206E
:101EA000069002A90920C006FEF7BCFFC0200290E0
:101EB00012200390012004900320059002A90D48F0
:101EC000FEF7B0FF0120C003029001200390002024
:101ED0000490059002A90920C006FEF7A3FF07B0F1
:101EE00000BD000000100240000800480004004847
:101EF000F0FF0000001400481CB500200090019085
:101F00000E480F4908600F48486000210C48816066
:101F10003121C16080218161FFF76EFD002801D071
:101F2000FEF750FC00200090019069460448FFF73E
:101F30001DFD002801D0FEF745FC1CBD001000402F
:101F400060000020BF12000010B5FFF71BFA10BDA3
:101F50007047704710B5FFF76FF810BD00B591B02E
:101F6000302105A8FEF74EF9002001900290039061
:101F7000049011200590012006900A9010200B90EB
:101F800002200D90C1030E91C1040F910021109108
:101F900005A8FFF707FA002801D0FEF713FC072079
:101FA000019002200290002003900490012101A8DA
:101FB000FFF7C0F8002801D0FEF704FCFFF770F926
:101FC00011B000BD7047000010B510210348FFF7A5
:101FD0001DF80348FFF7A1FD10BD000000080048F0
:101FE0006000002010B50268244B984206D00123FF
:101FF0009B07984202D0224B984205D17024134689
:10200000A3431A464B681A431C4B984212D0012333
:102010009B0798420ED01A4B98420BD0194B98420E
:1020200008D0194B984205D0184B984202D0184B53
:10203000984206D1032424021346A3431A46CB68D0
:102040001A4380241346A3434C6923431A46026073
:102050008B68C3620B688362084B984208D00A4BB6
:10206000984205D0094B984202D0094B984201D1C1
:102070000B6903630123436110BD0000002C014084
:1020800000040040002000400040014000440140A6
:102090000048014037B514460846064B6A462146BB
:1020A00000F040F904466946002000F0D9FC2046C3
:1020B0003EBD0000612A00082021020C01D0102141
:1020C0001046020A01D010460839020901D0104614
:1020D000091F820801D01046891E420801D0881EBF
:1020E0007047081A7047F8B582B28BB2040C0D0C19
:1020F00010465843002126465E43370C36048019AB
:10210000794116466E43370C3604801979412646CC
:102110006E438919F8BD000010B5002819DB1A4A72
:1021200003231B02D21883089B00D2588307DC0EBE
:10213000FF23A3409A438B071B0E8407E40EA340A2
:102140001A43114B032424021B198408A4001A51BA
:1021500018E00E4A03071B0F083B9B089B00D25850
:102160008307DC0EFF23A3409A438B071B0E8407D3
:10217000E40EA3401A43054B0407240F083CA408AF
:10218000A4001A5110BD000000E100E01CED00E0C9
:1021900002E008C8121F08C1002AFAD17047704730
:1021A000002001E001C1121F002AFBD1704700008E
:1021B000F0B51FB486B00998089A030D00210243B8
:1021C00014D05148514A1818504305141198012849
:1021D00010981AD0281A401C00264D4F4D490096E1
:1021E00001910490002812DA444211E01198012470
:1021F00049A3012801D11098C1430698119A84601F
:102200000360C26041600BB0F0BD4042E4E70446A9
:10221000210500203F4A001C51410391029012E029
:10222000E00707D032463B4601990098FEF7BAF81E
:102230000191009032463B4610461946FEF7B2F82F
:1022400006460F466410002CEAD10498039B002830
:10225000029A0999089806DAFEF7A4F8019B009AF9
:10226000FEF7A0F805E0FEF705F9019B009AFEF7DE
:1022700001F904460E460022284BFEF793F903D8D5
:102280000020C043014607E00022254B204631468E
:10229000FDF7D4FFFEF766F9102409E0002C0ADBF5
:1022A0000A220023FDF766FF079B30321A55641E91
:1022B00002460A43F2D11122641C079B121B1C190F
:1022C000119B012B03D0012308430ED10AE00843E0
:1022D00004D0112010900020119077E71098151A63
:1022E0006D1E0BE01098824202DD00236D1C03E09E
:1022F000824201DA00236D1E002BEED00698119960
:102300008260C16030C07EE701FCFFFF104D00001D
:10231000000014400000F03F300000000000F043D7
:102320000000E03FFFB597B0064600251BE22528D8
:1023300076D100242746F749049400E00443761C34
:1023400032780120203A90400842F7D130782A288C
:102350000ED00222307801463039092916D8049966
:102360000A235943303940181443761C0490F1E78E
:10237000189802C804911890002904DA012040033B
:1023800004434842049002200443761C30782E28EF
:1023900014D1042004437078761C2A2809D1189897
:1023A000761C80C8189009E00A214F43303FC719B6
:1023B000761C3078014630390929F5D930786C28F7
:1023C00010D006DC4C281AD068280ED06A2817D105
:1023D00004E0742813D07A2812D110E001204005BF
:1023E00004430CE00121090501E0032109050C4328
:1023F0007178814203D1012000052418761C761CD7
:10240000307866280BD013DC58287DD009DC0028F2
:102410007BD04528F6D04628F4D047281AD1A9E128
:1024200018E0632835D0642870D0652812D1A1E166
:1024300070286CD008DC6728F1D069287DD06E2820
:102440000DD06F2806D1BCE073282ED0752873D02C
:10245000782859D01A9A199990476D1C82E1600228
:10246000400F022809D003280DD0042818980168CD
:102470000DD00D60001D189074E11898EA170168DE
:102480000D604A60F6E7189801680D80F2E70D705C
:10249000F0E718986A4601781172001D1890002024
:1024A000507202A80090012005E0189802C8189008
:1024B00000200091C04361070ED5002101E0019981
:1024C000491C0191B94213DA8142F8DB019A009963
:1024D000895C0029F3D10BE0002101E00199491C3E
:1024E00001918142FADB019A0099895C0029F5D1BA
:1024F000019904981A9B471A21463846199A00F008
:1025000099FA4019019903E051E030E115E050E0FB
:10251000451807E0009800990078491C00911A9A24
:10252000199990470198401E0190401CF2D1214614
:1025300038461A9B199A12E137E00A2000210090D0
:1025400001916002410F022907D0189A01CA18921E
:10255000C2179446032908D00AE01898C01DC10884
:10256000C90005C91891944607E000B2C217944605
:10257000042902D140B2C1178C460022614694451D
:1025800006DA0A460021404291418C462D2102E0A4
:10259000210504D52B216A461173012103E0E107CF
:1025A00001D02021F7E7029156E00A200AE010202E
:1025B00008E0102000900021042004430191082726
:1025C00003E008200021019100906002410F0229E0
:1025D00007D0189A01CA189200229446032908D0FD
:1025E00008E01898C01DC108C90005C91891944693
:1025F00003E080B2042900D1C0B20021029121077A
:102600002AD531780D91702906D0009A1021019BAE
:102610004A401A4305D00EE040216A461173012159
:1026200008E06146014306D030216A4611730D99D6
:10263000517302210291009A0821019B4A401A43DA
:102640000AD16146014301D1610705D530216A46AF
:10265000117301217F1E02913178582904D02EA1D7
:102660000E910DA90D910DE030A1F9E76146019B96
:10267000009AFDF77FFD0E9B8C469B5C0D9A521EC7
:102680000D92137061460143F0D10D9805A9081A07
:1026900020300190600703D501200004844300E04E
:1026A00001270198874201DD381A00E000200199D6
:1026B00000904118029809180498401A0490E00309
:1026C00006D421461A9B199A049800F0B3F94519CB
:1026D000002706E003A81A9AC05D199990476D1C5F
:1026E0007F1C02988742F5DBE0030CD521461A9B3C
:1026F000199A049800F09EF9451904E01A9A3020BE
:10270000199990476D1C0099481E00900029F5DC2E
:102710001FE00000092801003031323334353637EC
:10272000383961626364656600000000303132331D
:1027300034353637383941424344454600000000BD
:102740000D980D990078491C0D911A9A1999904786
:102750006D1C0199481E01900029F1DC4DE100F04B
:1027600059F94519761C3078002800D0DFE5284655
:102770001BB0F0BD600700D406271898C01DC10823
:10278000C90048680A680831C30FDB0718911900AF
:1027900001D09CA108E0210501D59BA104E0E1073F
:1027A00001D09AA100E09AA14300109130785B0813
:1027B00065280CD006DC452809D046281DD04728BE
:1027C00041D141E0662818D067283CD13CE0002187
:1027D000112F01DB112000E0781C0191009008A965
:1027E00011A8FFF7E5FC139905910021119A1592A4
:1027F0007F1C12980197009150E00120C0070390C0
:102800000120019008A9009711A8FFF7D1FC139AA5
:10281000149905920022119B009212981593059A23
:102820000192002901D0104602E0791C4018019065
:10283000381A01D5019804E04042401E0090781CEF
:102840000190C01B029043E0012F00DA0127002114
:10285000112F01DD112000E038460191009008A9F8
:1028600011A8FFF7A5FC13990591119A0021129860
:1028700015920091019721070CD40599B94201DB0B
:10288000019900E00191012904DD159A491E515C6E
:10289000302906D0B84201DA011D05DA0121029182
:1028A00015E00199491EEDE7002805DC0099411863
:1028B00000910199091A03E0019A411C914200DD3F
:1028C00001910099401A401C02900120C00703901A
:1028D000200706D402990198814202DB0020C04300
:1028E000029000206946C87707AF0121039803379B
:1028F000C907884224D0022011902B2012900398FF
:1029000000280CDA404203902D20129007E00A21A3
:102910000398FDF719FC30317F1E0390397011992F
:10292000481E11900029F2DC03980028EFD1791E8F
:10293000129808703078202108404530BF1E38704A
:1029400006A8C01BC01D039010980078002800D076
:102950000120019941180298C01709180398091815
:102960000498401A401E0490E00306D421461A9BA6
:10297000199A049800F05EF845191098007800281C
:1029800003D01A9A199990476D1CE00324D521466B
:102990001A9B199A049800F04DF845191CE000980C
:1029A000002807DB00990598884203DD1598405CF4
:1029B000199901E0199930201A9A904700986D1CD6
:1029C000401C00900298401E0290002804D11A9AE0
:1029D0002E20199990476D1C0199481E01900029DD
:1029E000DDDC05E038781A9A7F1C199990476D1C38
:1029F0000399481E03900029F4DC21461A9B199A7A
:102A00000498ACE62D0000002B0000002000000020
:102A100000000000F8B5044600251E46174688044D
:102A200004D405E039462020B0476D1C641EF9D55A
:102A30002846F8BDFFB50446002581B01E46C803F0
:102A400001D5302700E02027880404D505E038466A
:102A50000399B0476D1C641EF9D5284605B0F0BD3A
:102A60000A68531C0B601070704700000120C003FF
:102A700001498861704700000008004810B52048EF
:102A80000068FF21090488431D4908600120800374
:102A9000886240108861FDF71DFB01200003184982
:102AA0008861FDF717FB17480078012803D1144807
:102AB00000690005C40F0120000311498862FDF779
:102AC00009FB012000030E498861FDF703FB0D4857
:102AD0000078002803D10A4800690005C40F0120CE
:102AE0000003074988620846006855210904084325
:102AF00003490860012C01D1012010BD0020FCE732
:102B0000000800480000002070B504460D46064845
:102B1000465D601E8019C6B2802030430146002009
:102B200000F026F870BD0000BA2C000810B504466D
:102B300003E0207800F005F8641C20780028F8D124
:102B400010BD10B504460A2C06D00C2C09D1022168
:102B50000120FFF7D9FF09E002210120FFF7D4FF90
:102B600004E02146012000F003F800BF00BF10BDC3
:102B700070B505460C4600BFFFF780FF0028FBD16B
:102B8000002D04D0012080030949886103E0012061
:102B900080030749886201204003054988622011AB
:102BA00000F008F82007000F00F004F870BD0000E6
:102BB0000008004870B505460B48406984B20B48D0
:102BC000044028020443084844610220FDF784FAC7
:102BD00001200003044988610220FDF77DFA0120ED
:102BE00000030149886270BD00080048FFF0000042
:102BF0000024FEF72DFAFFF7B1F9FFF7B5F8FFF75C
:102C00007BF9FFF775F81748FEF74AFF28E0002C1C
:102C100004D0012C1CD0022C21D11FE01248FEF759
:102C2000AFF81148FDF7CFFD10A000F033F80221F6
:102C30000120FFF769FF11A000F02CF8FFF716FF45
:102C4000124800884B21C900884200DD012406E0BB
:102C50000020FDF7A9FD0E49088000E000BF00BF7D
:102C6000D5E70000600000202000002054502041E3
:102C7000644C6364203C323032343E00436C6175F6
:102C80007A656C2061796D657269630006000020C9
:102C90000C0000200FB400B587B009A8009001A86F
:102CA000009A0899FFF7F6F901A8FFF73FFF002007
:102CB000009007B008BC04B01847000040000000B6
:102CC00000000000000102030406070809000000DC
:102CD0000001020304000000F82C0008000000209E
:102CE0002000000090210008182D0008200000207E
:102CF00088040000A021000800000000000000007F
:102D00000600002000000000000000000400000099
:082D10000100000000127A002E
:04000005080000BD32
:00000001FF
